{
  "contractName": "SecondPresale",
  "abi": [
    {
      "inputs": [
        {
          "internalType": "address",
          "name": "_teamWallet",
          "type": "address"
        }
      ],
      "stateMutability": "nonpayable",
      "type": "constructor"
    },
    {
      "inputs": [
        {
          "internalType": "address",
          "name": "",
          "type": "address"
        }
      ],
      "name": "claimReady",
      "outputs": [
        {
          "internalType": "uint256",
          "name": "",
          "type": "uint256"
        }
      ],
      "stateMutability": "view",
      "type": "function"
    },
    {
      "inputs": [],
      "name": "cooldownTime",
      "outputs": [
        {
          "internalType": "uint256",
          "name": "",
          "type": "uint256"
        }
      ],
      "stateMutability": "view",
      "type": "function"
    },
    {
      "inputs": [],
      "name": "deadWallet",
      "outputs": [
        {
          "internalType": "address",
          "name": "",
          "type": "address"
        }
      ],
      "stateMutability": "view",
      "type": "function"
    },
    {
      "inputs": [],
      "name": "ending",
      "outputs": [
        {
          "internalType": "uint256",
          "name": "",
          "type": "uint256"
        }
      ],
      "stateMutability": "view",
      "type": "function"
    },
    {
      "inputs": [
        {
          "internalType": "address",
          "name": "",
          "type": "address"
        }
      ],
      "name": "invested",
      "outputs": [
        {
          "internalType": "uint256",
          "name": "",
          "type": "uint256"
        }
      ],
      "stateMutability": "view",
      "type": "function"
    },
    {
      "inputs": [
        {
          "internalType": "address",
          "name": "",
          "type": "address"
        }
      ],
      "name": "investorBalance",
      "outputs": [
        {
          "internalType": "uint256",
          "name": "",
          "type": "uint256"
        }
      ],
      "stateMutability": "view",
      "type": "function"
    },
    {
      "inputs": [],
      "name": "owner",
      "outputs": [
        {
          "internalType": "address",
          "name": "",
          "type": "address"
        }
      ],
      "stateMutability": "view",
      "type": "function"
    },
    {
      "inputs": [],
      "name": "presaleStarted",
      "outputs": [
        {
          "internalType": "bool",
          "name": "",
          "type": "bool"
        }
      ],
      "stateMutability": "view",
      "type": "function"
    },
    {
      "inputs": [],
      "name": "token",
      "outputs": [
        {
          "internalType": "contract IERC20",
          "name": "",
          "type": "address"
        }
      ],
      "stateMutability": "view",
      "type": "function"
    },
    {
      "inputs": [],
      "name": "tokensPerETH",
      "outputs": [
        {
          "internalType": "uint256",
          "name": "",
          "type": "uint256"
        }
      ],
      "stateMutability": "view",
      "type": "function"
    },
    {
      "inputs": [],
      "name": "tokensSold",
      "outputs": [
        {
          "internalType": "uint256",
          "name": "",
          "type": "uint256"
        }
      ],
      "stateMutability": "view",
      "type": "function"
    },
    {
      "inputs": [
        {
          "internalType": "address",
          "name": "",
          "type": "address"
        }
      ],
      "name": "whitelist",
      "outputs": [
        {
          "internalType": "bool",
          "name": "",
          "type": "bool"
        }
      ],
      "stateMutability": "view",
      "type": "function"
    },
    {
      "inputs": [
        {
          "internalType": "address",
          "name": "",
          "type": "address"
        }
      ],
      "name": "withdrawableBalance",
      "outputs": [
        {
          "internalType": "uint256",
          "name": "",
          "type": "uint256"
        }
      ],
      "stateMutability": "view",
      "type": "function"
    },
    {
      "inputs": [
        {
          "internalType": "contract IERC20",
          "name": "_token",
          "type": "address"
        }
      ],
      "name": "setToken",
      "outputs": [],
      "stateMutability": "nonpayable",
      "type": "function"
    },
    {
      "inputs": [
        {
          "internalType": "address",
          "name": "_investor",
          "type": "address"
        }
      ],
      "name": "addToWhitelist",
      "outputs": [],
      "stateMutability": "nonpayable",
      "type": "function"
    },
    {
      "inputs": [
        {
          "internalType": "uint256",
          "name": "_presaleTime",
          "type": "uint256"
        }
      ],
      "name": "startPresale",
      "outputs": [],
      "stateMutability": "nonpayable",
      "type": "function"
    },
    {
      "inputs": [],
      "name": "invest",
      "outputs": [],
      "stateMutability": "payable",
      "type": "function"
    },
    {
      "inputs": [],
      "name": "claimTokens",
      "outputs": [],
      "stateMutability": "nonpayable",
      "type": "function"
    },
    {
      "inputs": [],
      "name": "BalanceOut",
      "outputs": [],
      "stateMutability": "nonpayable",
      "type": "function"
    },
    {
      "inputs": [],
      "name": "burnTokens",
      "outputs": [],
      "stateMutability": "nonpayable",
      "type": "function"
    }
  ],
  "bytecode": "0x60806040526000600260146101000a81548160ff0219169083151502179055506113886003556000600560006101000a81548160ff0219169083151502179055506000600560016101000a81548173ffffffffffffffffffffffffffffffffffffffff021916908373ffffffffffffffffffffffffffffffffffffffff16021790555060006006553480156200009457600080fd5b50604051620024e5380380620024e58339818101604052810190620000ba919062000121565b600160008190555080600160006101000a81548173ffffffffffffffffffffffffffffffffffffffff021916908373ffffffffffffffffffffffffffffffffffffffff16021790555050620001a6565b6000815190506200011b816200018c565b92915050565b6000602082840312156200013a576200013962000187565b5b60006200014a848285016200010a565b91505092915050565b6000620001608262000167565b9050919050565b600073ffffffffffffffffffffffffffffffffffffffff82169050919050565b600080fd5b620001978162000153565b8114620001a357600080fd5b50565b61232f80620001b66000396000f3fe60806040526004361061011f5760003560e01c80638da5cb5b116100a0578063e43252d711610064578063e43252d7146103c5578063e8b5e51f146103ee578063ea4dbf22146103f8578063ed4f042f14610435578063fc0c546a1461044c5761011f565b80638da5cb5b146102de57806394033c81146103095780639b19251a14610334578063a132aad114610371578063b319c6b71461039a5761011f565b806333941681116100e757806333941681146101f757806348c54b9d14610234578063518ab2a81461024b57806366b3f6bf1461027657806385141a77146102b35761011f565b806302b629381461012457806304549d6f1461016157806308003f781461018c578063144fa6d7146101a357806324562747146101cc575b600080fd5b34801561013057600080fd5b5061014b6004803603810190610146919061187f565b610477565b6040516101589190611dc0565b60405180910390f35b34801561016d57600080fd5b5061017661048f565b6040516101839190611bca565b60405180910390f35b34801561019857600080fd5b506101a16104a2565b005b3480156101af57600080fd5b506101ca60048036038101906101c591906118d9565b61070d565b005b3480156101d857600080fd5b506101e161084c565b6040516101ee9190611dc0565b60405180910390f35b34801561020357600080fd5b5061021e6004803603810190610219919061187f565b610852565b60405161022b9190611dc0565b60405180910390f35b34801561024057600080fd5b5061024961086a565b005b34801561025757600080fd5b50610260610ef8565b60405161026d9190611dc0565b60405180910390f35b34801561028257600080fd5b5061029d6004803603810190610298919061187f565b610efe565b6040516102aa9190611dc0565b60405180910390f35b3480156102bf57600080fd5b506102c8610f16565b6040516102d59190611b86565b60405180910390f35b3480156102ea57600080fd5b506102f3610f3c565b6040516103009190611b86565b60405180910390f35b34801561031557600080fd5b5061031e610f62565b60405161032b9190611dc0565b60405180910390f35b34801561034057600080fd5b5061035b6004803603810190610356919061187f565b610f68565b6040516103689190611bca565b60405180910390f35b34801561037d57600080fd5b5061039860048036038101906103939190611906565b610f88565b005b3480156103a657600080fd5b506103af611098565b6040516103bc9190611dc0565b60405180910390f35b3480156103d157600080fd5b506103ec60048036038101906103e7919061187f565b61109e565b005b6103f66111ff565b005b34801561040457600080fd5b5061041f600480360381019061041a919061187f565b6115b9565b60405161042c9190611dc0565b60405180910390f35b34801561044157600080fd5b5061044a6115d1565b005b34801561045857600080fd5b506104616116d2565b60405161046e9190611be5565b60405180910390f35b600b6020528060005260406000206000915090505481565b600560009054906101000a900460ff1681565b600160009054906101000a900473ffffffffffffffffffffffffffffffffffffffff1673ffffffffffffffffffffffffffffffffffffffff163373ffffffffffffffffffffffffffffffffffffffff1614610532576040517f08c379a000000000000000000000000000000000000000000000000000000000815260040161052990611c00565b60405180910390fd5b6004544211610576576040517f08c379a000000000000000000000000000000000000000000000000000000000815260040161056d90611d60565b60405180910390fd5b6000600260009054906101000a900473ffffffffffffffffffffffffffffffffffffffff1673ffffffffffffffffffffffffffffffffffffffff166370a08231306040518263ffffffff1660e01b81526004016105d39190611b86565b60206040518083038186803b1580156105eb57600080fd5b505afa1580156105ff573d6000803e3d6000fd5b505050506040513d601f19601f820116820180604052508101906106239190611933565b90506000600754826106359190611ecd565b9050600260009054906101000a900473ffffffffffffffffffffffffffffffffffffffff1673ffffffffffffffffffffffffffffffffffffffff1663a9059cbb600560019054906101000a900473ffffffffffffffffffffffffffffffffffffffff16836040518363ffffffff1660e01b81526004016106b6929190611ba1565b602060405180830381600087803b1580156106d057600080fd5b505af11580156106e4573d6000803e3d6000fd5b505050506040513d601f19601f8201168201806040525081019061070891906118ac565b505050565b600160009054906101000a900473ffffffffffffffffffffffffffffffffffffffff1673ffffffffffffffffffffffffffffffffffffffff163373ffffffffffffffffffffffffffffffffffffffff161461079d576040517f08c379a000000000000000000000000000000000000000000000000000000000815260040161079490611c00565b60405180910390fd5b600260149054906101000a900460ff16156107ed576040517f08c379a00000000000000000000000000000000000000000000000000000000081526004016107e490611d40565b60405180910390fd5b80600260006101000a81548173ffffffffffffffffffffffffffffffffffffffff021916908373ffffffffffffffffffffffffffffffffffffffff1602179055506001600260146101000a81548160ff02191690831515021790555050565b60035481565b600a6020528060005260406000206000915090505481565b600260005414156108b0576040517f08c379a00000000000000000000000000000000000000000000000000000000081526004016108a790611da0565b60405180910390fd5b6002600081905550600860003373ffffffffffffffffffffffffffffffffffffffff1673ffffffffffffffffffffffffffffffffffffffff16815260200190815260200160002060009054906101000a900460ff16610944576040517f08c379a000000000000000000000000000000000000000000000000000000000815260040161093b90611ca0565b60405180910390fd5b6004544211610988576040517f08c379a000000000000000000000000000000000000000000000000000000000815260040161097f90611d60565b60405180910390fd5b42600c60003373ffffffffffffffffffffffffffffffffffffffff1673ffffffffffffffffffffffffffffffffffffffff168152602001908152602001600020541115610a0a576040517f08c379a0000000000000000000000000000000000000000000000000000000008152600401610a0190611cc0565b60405180910390fd5b6000600260009054906101000a900473ffffffffffffffffffffffffffffffffffffffff1673ffffffffffffffffffffffffffffffffffffffff166370a08231306040518263ffffffff1660e01b8152600401610a679190611b86565b60206040518083038186803b158015610a7f57600080fd5b505afa158015610a93573d6000803e3d6000fd5b505050506040513d601f19601f82011682018060405250810190610ab79190611933565b905060008111610afc576040517f08c379a0000000000000000000000000000000000000000000000000000000008152600401610af390611c80565b60405180910390fd5b6000600a60003373ffffffffffffffffffffffffffffffffffffffff1673ffffffffffffffffffffffffffffffffffffffff1681526020019081526020016000205411610b7e576040517f08c379a0000000000000000000000000000000000000000000000000000000008152600401610b7590611c60565b60405180910390fd5b6000610bce600a60003373ffffffffffffffffffffffffffffffffffffffff1673ffffffffffffffffffffffffffffffffffffffff168152602001908152602001600020546103e86127106116f8565b905080600b60003373ffffffffffffffffffffffffffffffffffffffff1673ffffffffffffffffffffffffffffffffffffffff1681526020019081526020016000205411610d9457600260009054906101000a900473ffffffffffffffffffffffffffffffffffffffff1673ffffffffffffffffffffffffffffffffffffffff1663a9059cbb33600b60003373ffffffffffffffffffffffffffffffffffffffff1673ffffffffffffffffffffffffffffffffffffffff168152602001908152602001600020546040518363ffffffff1660e01b8152600401610cb2929190611ba1565b602060405180830381600087803b158015610ccc57600080fd5b505af1158015610ce0573d6000803e3d6000fd5b505050506040513d601f19601f82011682018060405250810190610d0491906118ac565b506000600a60003373ffffffffffffffffffffffffffffffffffffffff1673ffffffffffffffffffffffffffffffffffffffff168152602001908152602001600020819055506000600b60003373ffffffffffffffffffffffffffffffffffffffff1673ffffffffffffffffffffffffffffffffffffffff16815260200190815260200160002081905550610eec565b60065442610da29190611dec565b600c60003373ffffffffffffffffffffffffffffffffffffffff1673ffffffffffffffffffffffffffffffffffffffff1681526020019081526020016000208190555080600b60003373ffffffffffffffffffffffffffffffffffffffff1673ffffffffffffffffffffffffffffffffffffffff1681526020019081526020016000206000828254610e349190611ecd565b92505081905550600260009054906101000a900473ffffffffffffffffffffffffffffffffffffffff1673ffffffffffffffffffffffffffffffffffffffff1663a9059cbb33836040518363ffffffff1660e01b8152600401610e98929190611ba1565b602060405180830381600087803b158015610eb257600080fd5b505af1158015610ec6573d6000803e3d6000fd5b505050506040513d601f19601f82011682018060405250810190610eea91906118ac565b505b50506001600081905550565b60075481565b60096020528060005260406000206000915090505481565b600560019054906101000a900473ffffffffffffffffffffffffffffffffffffffff1681565b600160009054906101000a900473ffffffffffffffffffffffffffffffffffffffff1681565b60045481565b60086020528060005260406000206000915054906101000a900460ff1681565b600160009054906101000a900473ffffffffffffffffffffffffffffffffffffffff1673ffffffffffffffffffffffffffffffffffffffff163373ffffffffffffffffffffffffffffffffffffffff1614611018576040517f08c379a000000000000000000000000000000000000000000000000000000000815260040161100f90611c00565b60405180910390fd5b600560009054906101000a900460ff1615611068576040517f08c379a000000000000000000000000000000000000000000000000000000000815260040161105f90611d80565b60405180910390fd5b80426110749190611dec565b6004819055506001600560006101000a81548160ff02191690831515021790555050565b60065481565b600160009054906101000a900473ffffffffffffffffffffffffffffffffffffffff1673ffffffffffffffffffffffffffffffffffffffff163373ffffffffffffffffffffffffffffffffffffffff161461112e576040517f08c379a000000000000000000000000000000000000000000000000000000000815260040161112590611c00565b60405180910390fd5b600073ffffffffffffffffffffffffffffffffffffffff168173ffffffffffffffffffffffffffffffffffffffff16141561119e576040517f08c379a000000000000000000000000000000000000000000000000000000000815260040161119590611c40565b60405180910390fd5b60008190506001600860008373ffffffffffffffffffffffffffffffffffffffff1673ffffffffffffffffffffffffffffffffffffffff16815260200190815260200160002060006101000a81548160ff0219169083151502179055505050565b60026000541415611245576040517f08c379a000000000000000000000000000000000000000000000000000000000815260040161123c90611da0565b60405180910390fd5b6002600081905550600860003373ffffffffffffffffffffffffffffffffffffffff1673ffffffffffffffffffffffffffffffffffffffff16815260200190815260200160002060009054906101000a900460ff166112d9576040517f08c379a00000000000000000000000000000000000000000000000000000000081526004016112d090611ca0565b60405180910390fd5b600560009054906101000a900460ff16611328576040517f08c379a000000000000000000000000000000000000000000000000000000000815260040161131f90611c20565b60405180910390fd5b60045442111561136d576040517f08c379a000000000000000000000000000000000000000000000000000000000815260040161136490611d20565b60405180910390fd5b34600960003373ffffffffffffffffffffffffffffffffffffffff1673ffffffffffffffffffffffffffffffffffffffff16815260200190815260200160002060008282546113bc9190611dec565b9250508190555067016345785d8a0000600960003373ffffffffffffffffffffffffffffffffffffffff1673ffffffffffffffffffffffffffffffffffffffff16815260200190815260200160002054101561144d576040517f08c379a000000000000000000000000000000000000000000000000000000000815260040161144490611d00565b60405180910390fd5b678ac7230489e80000600960003373ffffffffffffffffffffffffffffffffffffffff1673ffffffffffffffffffffffffffffffffffffffff1681526020019081526020016000205411156114d7576040517f08c379a00000000000000000000000000000000000000000000000000000000081526004016114ce90611ce0565b60405180910390fd5b6000600354346114e79190611e73565b905080600a60003373ffffffffffffffffffffffffffffffffffffffff1673ffffffffffffffffffffffffffffffffffffffff16815260200190815260200160002060008282546115389190611dec565b9250508190555080600b60003373ffffffffffffffffffffffffffffffffffffffff1673ffffffffffffffffffffffffffffffffffffffff168152602001908152602001600020600082825461158e9190611dec565b9250508190555080600760008282546115a79190611dec565b92505081905550506001600081905550565b600c6020528060005260406000206000915090505481565b600160009054906101000a900473ffffffffffffffffffffffffffffffffffffffff1673ffffffffffffffffffffffffffffffffffffffff163373ffffffffffffffffffffffffffffffffffffffff1614611661576040517f08c379a000000000000000000000000000000000000000000000000000000000815260040161165890611c00565b60405180910390fd5b6000479050600160009054906101000a900473ffffffffffffffffffffffffffffffffffffffff1673ffffffffffffffffffffffffffffffffffffffff166108fc829081150290604051600060405180830381858888f193505050501580156116ce573d6000803e3d6000fd5b5050565b600260009054906101000a900473ffffffffffffffffffffffffffffffffffffffff1681565b600080826fffffffffffffffffffffffffffffffff16856117199190611e42565b90506000836fffffffffffffffffffffffffffffffff168661173b9190611f7f565b90506000846fffffffffffffffffffffffffffffffff168661175d9190611e42565b90506000856fffffffffffffffffffffffffffffffff168761177f9190611f7f565b9050856fffffffffffffffffffffffffffffffff1681846117a09190611e73565b6117aa9190611e42565b82846117b69190611e73565b82866117c29190611e73565b886fffffffffffffffffffffffffffffffff1685886117e19190611e73565b6117eb9190611e73565b6117f59190611dec565b6117ff9190611dec565b6118099190611dec565b9450505050509392505050565b6000813590506118258161229d565b92915050565b60008151905061183a816122b4565b92915050565b60008135905061184f816122cb565b92915050565b600081359050611864816122e2565b92915050565b600081519050611879816122e2565b92915050565b6000602082840312156118955761189461200e565b5b60006118a384828501611816565b91505092915050565b6000602082840312156118c2576118c161200e565b5b60006118d08482850161182b565b91505092915050565b6000602082840312156118ef576118ee61200e565b5b60006118fd84828501611840565b91505092915050565b60006020828403121561191c5761191b61200e565b5b600061192a84828501611855565b91505092915050565b6000602082840312156119495761194861200e565b5b60006119578482850161186a565b91505092915050565b61196981611f01565b82525050565b61197881611f13565b82525050565b61198781611f5b565b82525050565b600061199a601683611ddb565b91506119a582612013565b602082019050919050565b60006119bd601a83611ddb565b91506119c88261203c565b602082019050919050565b60006119e0601083611ddb565b91506119eb82612065565b602082019050919050565b6000611a03601e83611ddb565b9150611a0e8261208e565b602082019050919050565b6000611a26601e83611ddb565b9150611a31826120b7565b602082019050919050565b6000611a49601d83611ddb565b9150611a54826120e0565b602082019050919050565b6000611a6c601483611ddb565b9150611a7782612109565b602082019050919050565b6000611a8f602583611ddb565b9150611a9a82612132565b604082019050919050565b6000611ab2602d83611ddb565b9150611abd82612181565b604082019050919050565b6000611ad5601183611ddb565b9150611ae0826121d0565b602082019050919050565b6000611af8601a83611ddb565b9150611b03826121f9565b602082019050919050565b6000611b1b601b83611ddb565b9150611b2682612222565b602082019050919050565b6000611b3e601883611ddb565b9150611b498261224b565b602082019050919050565b6000611b61601f83611ddb565b9150611b6c82612274565b602082019050919050565b611b8081611f51565b82525050565b6000602082019050611b9b6000830184611960565b92915050565b6000604082019050611bb66000830185611960565b611bc36020830184611b77565b9392505050565b6000602082019050611bdf600083018461196f565b92915050565b6000602082019050611bfa600083018461197e565b92915050565b60006020820190508181036000830152611c198161198d565b9050919050565b60006020820190508181036000830152611c39816119b0565b9050919050565b60006020820190508181036000830152611c59816119d3565b9050919050565b60006020820190508181036000830152611c79816119f6565b9050919050565b60006020820190508181036000830152611c9981611a19565b9050919050565b60006020820190508181036000830152611cb981611a3c565b9050919050565b60006020820190508181036000830152611cd981611a5f565b9050919050565b60006020820190508181036000830152611cf981611a82565b9050919050565b60006020820190508181036000830152611d1981611aa5565b9050919050565b60006020820190508181036000830152611d3981611ac8565b9050919050565b60006020820190508181036000830152611d5981611aeb565b9050919050565b60006020820190508181036000830152611d7981611b0e565b9050919050565b60006020820190508181036000830152611d9981611b31565b9050919050565b60006020820190508181036000830152611db981611b54565b9050919050565b6000602082019050611dd56000830184611b77565b92915050565b600082825260208201905092915050565b6000611df782611f51565b9150611e0283611f51565b9250827fffffffffffffffffffffffffffffffffffffffffffffffffffffffffffffffff03821115611e3757611e36611fb0565b5b828201905092915050565b6000611e4d82611f51565b9150611e5883611f51565b925082611e6857611e67611fdf565b5b828204905092915050565b6000611e7e82611f51565b9150611e8983611f51565b9250817fffffffffffffffffffffffffffffffffffffffffffffffffffffffffffffffff0483118215151615611ec257611ec1611fb0565b5b828202905092915050565b6000611ed882611f51565b9150611ee383611f51565b925082821015611ef657611ef5611fb0565b5b828203905092915050565b6000611f0c82611f31565b9050919050565b60008115159050919050565b6000611f2a82611f01565b9050919050565b600073ffffffffffffffffffffffffffffffffffffffff82169050919050565b6000819050919050565b6000611f6682611f6d565b9050919050565b6000611f7882611f31565b9050919050565b6000611f8a82611f51565b9150611f9583611f51565b925082611fa557611fa4611fdf565b5b828206905092915050565b7f4e487b7100000000000000000000000000000000000000000000000000000000600052601160045260246000fd5b7f4e487b7100000000000000000000000000000000000000000000000000000000600052601260045260246000fd5b600080fd5b7f596f75206d75737420626520746865206f776e65722e00000000000000000000600082015250565b7f50726573616c65206d757374206861766520737461727465642e000000000000600082015250565b7f496e76616c696420616464726573732e00000000000000000000000000000000600082015250565b7f496e73756666696369656e7420696e766573746f722062616c616e63652e0000600082015250565b7f496e73756666696369656e7420636f6e74726163742062616c616e63652e0000600082015250565b7f596f75206d757374206265206f6e207468652077686974656c6973742e000000600082015250565b7f596f752063616e277420636c61696d206e6f772e000000000000000000000000600082015250565b7f596f757220696e766573746d656e742063616e6e6f742065786365656420313060008201527f20424e422e000000000000000000000000000000000000000000000000000000602082015250565b7f596f757220696e766573746d656e742073686f756c64206265206d6f7265207460008201527f68616e20302e313020424e422e00000000000000000000000000000000000000602082015250565b7f50726573616c652066696e69736865642e000000000000000000000000000000600082015250565b7f546f6b656e20697320616c726561647920696e7365727465642e000000000000600082015250565b7f50726573616c65206d75737420686176652066696e69736865642e0000000000600082015250565b7f50726573616c6520616c726561647920737461727465642e0000000000000000600082015250565b7f5265656e7472616e637947756172643a207265656e7472616e742063616c6c00600082015250565b6122a681611f01565b81146122b157600080fd5b50565b6122bd81611f13565b81146122c857600080fd5b50565b6122d481611f1f565b81146122df57600080fd5b50565b6122eb81611f51565b81146122f657600080fd5b5056fea2646970667358221220679d7503ed16a04e7720562c9f1a82c10a1a00201abf6db42aebda27a43579f164736f6c63430008060033",
  "immutableReferences": {},
  "source": "// SPDX-License-Identifier: MIT\npragma solidity ^0.8.6;\n\n// Imports\nimport \"./Libraries.sol\";\n\ncontract SecondPresale is ReentrancyGuard {\n    address public owner; // owner wallet\n    IERC20 public token; //  Token.\n    bool private tokenAvailable = false;\n    uint public tokensPerETH = 5000; // new quantity of tokens per bnb half as many as presale 1\n    uint public ending; // end time\n    bool public presaleStarted = false; // true or false\n    address public deadWallet = 0x0000000000000000000000000000000000000000; // burn Wallet.\n    uint public cooldownTime = 0 days; //time between withdrawals to prevent whales\n    uint public tokensSold;//sold quantity\n\n    mapping(address => bool) public whitelist; // Whitelist of investors for presale\n    mapping(address => uint) public invested; //how much bnb have they invested\n    mapping(address => uint) public investorBalance;//what is their balance\n    mapping(address => uint) public withdrawableBalance;//how much of that can they withdraw\n    mapping(address => uint) public claimReady;//is the claim ready\n\n    constructor(address _teamWallet) {\n        owner = _teamWallet;\n    }\n\n    modifier onlyOwner() {\n        require(msg.sender == owner, 'You must be the owner.');\n        _;\n    }\n\n    //set the token can do only 1 time\n    function setToken(IERC20 _token) public onlyOwner {\n        require(!tokenAvailable, \"Token is already inserted.\");\n        token = _token;\n        tokenAvailable = true;\n    }\n\n    //add to whitelist\n    function addToWhitelist(address _investor) public onlyOwner {\n            require(_investor != address(0), 'Invalid address.');\n            address _investorAddress = _investor;\n            whitelist[_investorAddress] = true;        \n    }\n\n    function startPresale(uint _presaleTime) public onlyOwner {\n        require(!presaleStarted, \"Presale already started.\");\n        ending = block.timestamp + _presaleTime;\n        presaleStarted = true;\n    }\n\n    //buy token\n    function invest() public payable nonReentrant {\n        require(whitelist[msg.sender], \"You must be on the whitelist.\");\n        require(presaleStarted, \"Presale must have started.\");\n        require(block.timestamp <= ending, \"Presale finished.\");\n        invested[msg.sender] += msg.value; // update the investors investment\n        require(invested[msg.sender] >= 0.10 ether, \"Your investment should be more than 0.10 BNB.\");\n        require(invested[msg.sender] <= 10 ether, \"Your investment cannot exceed 10 BNB.\");\n        uint _investorTokens = msg.value * tokensPerETH; // how many PLRT Token will they receive\n        investorBalance[msg.sender] += _investorTokens;\n        withdrawableBalance[msg.sender] += _investorTokens;\n        tokensSold += _investorTokens;\n    }\n\n    //% calculator\n    function mulScale (uint x, uint y, uint128 scale) internal pure returns (uint) {\n        uint a = x / scale;\n        uint b = x % scale;\n        uint c = y / scale;\n        uint d = y % scale;\n        return a * c * scale + a * d + b * c + b * d / scale;\n    }\n    //claim function for investors\n    function claimTokens() public nonReentrant {\n        require(whitelist[msg.sender], \"You must be on the whitelist.\");\n        require(block.timestamp > ending, \"Presale must have finished.\");\n        require(claimReady[msg.sender] <= block.timestamp, \"You can't claim now.\");\n        uint _contractBalance = token.balanceOf(address(this));\n        require(_contractBalance > 0, \"Insufficient contract balance.\");\n        require(investorBalance[msg.sender] > 0, \"Insufficient investor balance.\");\n        uint _withdrawableTokensBalance = mulScale(investorBalance[msg.sender], 1000, 10000); // 1000 basis points = 10%.\n        if(withdrawableBalance[msg.sender] <= _withdrawableTokensBalance) {\n            token.transfer(msg.sender, withdrawableBalance[msg.sender]);\n            investorBalance[msg.sender] = 0;\n            withdrawableBalance[msg.sender] = 0;\n        } else {\n            claimReady[msg.sender] = block.timestamp + cooldownTime; // udate next claim time\n            withdrawableBalance[msg.sender] -= _withdrawableTokensBalance; // update balance\n            token.transfer(msg.sender, _withdrawableTokensBalance); // transfer tokens\n        }\n    }\n\n    function BalanceOut() public onlyOwner {\n        uint _bBalance = address(this).balance;\n        payable(owner).transfer(_bBalance);\n    }\n    //burn leftover tokens\n    function burnTokens() public onlyOwner {\n        require(block.timestamp > ending, \"Presale must have finished.\");\n        uint _contractBalance = token.balanceOf(address(this));\n        uint _tokenBalance = _contractBalance - tokensSold;\n        token.transfer(deadWallet, _tokenBalance);\n    }\n}",
  "sourcePath": "/home/r00t/Documents/CURRENT_WORK/Paralell_Shift/_good_medicine/clean_Token-contracts/contracts/SecondPresale.sol",
  "compiler": {
    "name": "solc",
    "version": "0.8.6+commit.11564f7e.Emscripten.clang"
  },
  "schemaVersion": "3.4.6",
  "updatedAt": "2022-03-26T15:38:54.725Z",
  "devdoc": {
    "kind": "dev",
    "methods": {},
    "version": 1
  },
  "userdoc": {
    "kind": "user",
    "methods": {},
    "version": 1
  }
}