{
  "contractName": "SetasToken",
  "abi": [
    {
      "inputs": [
        {
          "internalType": "address",
          "name": "_teamWallet",
          "type": "address"
        },
        {
          "internalType": "address",
          "name": "_marketingWallet",
          "type": "address"
        },
        {
          "internalType": "address",
          "name": "_firstPresaleContract",
          "type": "address"
        },
        {
          "internalType": "address",
          "name": "_secondPresaleContract",
          "type": "address"
        },
        {
          "internalType": "address",
          "name": "_teamVestingContract",
          "type": "address"
        }
      ],
      "stateMutability": "nonpayable",
      "type": "constructor"
    },
    {
      "anonymous": false,
      "inputs": [
        {
          "indexed": true,
          "internalType": "address",
          "name": "_owner",
          "type": "address"
        },
        {
          "indexed": true,
          "internalType": "address",
          "name": "_spender",
          "type": "address"
        },
        {
          "indexed": false,
          "internalType": "uint256",
          "name": "_value",
          "type": "uint256"
        }
      ],
      "name": "Approval",
      "type": "event"
    },
    {
      "anonymous": false,
      "inputs": [
        {
          "indexed": true,
          "internalType": "address",
          "name": "_from",
          "type": "address"
        },
        {
          "indexed": true,
          "internalType": "address",
          "name": "_to",
          "type": "address"
        },
        {
          "indexed": false,
          "internalType": "uint256",
          "name": "_value",
          "type": "uint256"
        }
      ],
      "name": "Transfer",
      "type": "event"
    },
    {
      "inputs": [
        {
          "internalType": "address",
          "name": "",
          "type": "address"
        }
      ],
      "name": "balanceOf",
      "outputs": [
        {
          "internalType": "uint256",
          "name": "",
          "type": "uint256"
        }
      ],
      "stateMutability": "view",
      "type": "function"
    },
    {
      "inputs": [],
      "name": "decimals",
      "outputs": [
        {
          "internalType": "uint8",
          "name": "",
          "type": "uint8"
        }
      ],
      "stateMutability": "view",
      "type": "function"
    },
    {
      "inputs": [],
      "name": "liquidityLockCooldown",
      "outputs": [
        {
          "internalType": "uint256",
          "name": "",
          "type": "uint256"
        }
      ],
      "stateMutability": "view",
      "type": "function"
    },
    {
      "inputs": [],
      "name": "liquidityLockTime",
      "outputs": [
        {
          "internalType": "uint256",
          "name": "",
          "type": "uint256"
        }
      ],
      "stateMutability": "view",
      "type": "function"
    },
    {
      "inputs": [],
      "name": "marketingWallet",
      "outputs": [
        {
          "internalType": "address",
          "name": "",
          "type": "address"
        }
      ],
      "stateMutability": "view",
      "type": "function"
    },
    {
      "inputs": [],
      "name": "name",
      "outputs": [
        {
          "internalType": "string",
          "name": "",
          "type": "string"
        }
      ],
      "stateMutability": "view",
      "type": "function"
    },
    {
      "inputs": [],
      "name": "symbol",
      "outputs": [
        {
          "internalType": "string",
          "name": "",
          "type": "string"
        }
      ],
      "stateMutability": "view",
      "type": "function"
    },
    {
      "inputs": [],
      "name": "teamWallet",
      "outputs": [
        {
          "internalType": "address",
          "name": "",
          "type": "address"
        }
      ],
      "stateMutability": "view",
      "type": "function"
    },
    {
      "inputs": [],
      "name": "totalSupply",
      "outputs": [
        {
          "internalType": "uint256",
          "name": "",
          "type": "uint256"
        }
      ],
      "stateMutability": "view",
      "type": "function"
    },
    {
      "inputs": [
        {
          "internalType": "address",
          "name": "_to",
          "type": "address"
        },
        {
          "internalType": "uint256",
          "name": "_value",
          "type": "uint256"
        }
      ],
      "name": "transfer",
      "outputs": [
        {
          "internalType": "bool",
          "name": "success",
          "type": "bool"
        }
      ],
      "stateMutability": "nonpayable",
      "type": "function"
    },
    {
      "inputs": [
        {
          "internalType": "address",
          "name": "_owner",
          "type": "address"
        },
        {
          "internalType": "address",
          "name": "_spender",
          "type": "address"
        }
      ],
      "name": "allowance",
      "outputs": [
        {
          "internalType": "uint256",
          "name": "",
          "type": "uint256"
        }
      ],
      "stateMutability": "view",
      "type": "function"
    },
    {
      "inputs": [
        {
          "internalType": "address",
          "name": "_spender",
          "type": "address"
        },
        {
          "internalType": "uint256",
          "name": "_addedValue",
          "type": "uint256"
        }
      ],
      "name": "increaseAllowance",
      "outputs": [
        {
          "internalType": "bool",
          "name": "",
          "type": "bool"
        }
      ],
      "stateMutability": "nonpayable",
      "type": "function"
    },
    {
      "inputs": [
        {
          "internalType": "address",
          "name": "_spender",
          "type": "address"
        },
        {
          "internalType": "uint256",
          "name": "_subtractedValue",
          "type": "uint256"
        }
      ],
      "name": "decreaseAllowance",
      "outputs": [
        {
          "internalType": "bool",
          "name": "",
          "type": "bool"
        }
      ],
      "stateMutability": "nonpayable",
      "type": "function"
    },
    {
      "inputs": [
        {
          "internalType": "address",
          "name": "_spender",
          "type": "address"
        },
        {
          "internalType": "uint256",
          "name": "_value",
          "type": "uint256"
        }
      ],
      "name": "approve",
      "outputs": [
        {
          "internalType": "bool",
          "name": "success",
          "type": "bool"
        }
      ],
      "stateMutability": "nonpayable",
      "type": "function"
    },
    {
      "inputs": [
        {
          "internalType": "address",
          "name": "_from",
          "type": "address"
        },
        {
          "internalType": "address",
          "name": "_to",
          "type": "address"
        },
        {
          "internalType": "uint256",
          "name": "_value",
          "type": "uint256"
        }
      ],
      "name": "transferFrom",
      "outputs": [
        {
          "internalType": "bool",
          "name": "success",
          "type": "bool"
        }
      ],
      "stateMutability": "nonpayable",
      "type": "function"
    },
    {
      "inputs": [
        {
          "internalType": "uint256",
          "name": "_amount",
          "type": "uint256"
        }
      ],
      "name": "burn",
      "outputs": [],
      "stateMutability": "nonpayable",
      "type": "function"
    },
    {
      "inputs": [
        {
          "internalType": "uint256",
          "name": "_tokenAmount",
          "type": "uint256"
        }
      ],
      "name": "addLiquidity",
      "outputs": [],
      "stateMutability": "payable",
      "type": "function"
    },
    {
      "inputs": [],
      "name": "removeLiquidity",
      "outputs": [],
      "stateMutability": "nonpayable",
      "type": "function"
    }
  ],
  "bytecode": "0x60806040526040518060400160405280600a81526020017f5365746120546f6b656e000000000000000000000000000000000000000000008152506000908051906020019062000051929190620006f8565b506040518060400160405280600481526020017f5365746100000000000000000000000000000000000000000000000000000000815250600190805190602001906200009f929190620006f8565b50629896806002556000600360006101000a81548160ff021916908360ff1602179055506304a28600600a55348015620000d857600080fd5b506040516200291a3803806200291a8339818101604052810190620000fe9190620007f1565b84600360016101000a81548173ffffffffffffffffffffffffffffffffffffffff021916908373ffffffffffffffffffffffffffffffffffffffff16021790555083600460006101000a81548173ffffffffffffffffffffffffffffffffffffffff021916908373ffffffffffffffffffffffffffffffffffffffff16021790555082600560006101000a81548173ffffffffffffffffffffffffffffffffffffffff021916908373ffffffffffffffffffffffffffffffffffffffff16021790555081600660006101000a81548173ffffffffffffffffffffffffffffffffffffffff021916908373ffffffffffffffffffffffffffffffffffffffff16021790555080600760006101000a81548173ffffffffffffffffffffffffffffffffffffffff021916908373ffffffffffffffffffffffffffffffffffffffff160217905550739ac64cc6e4415144c455bd8e4837fea55603e5c3600860006101000a81548173ffffffffffffffffffffffffffffffffffffffff021916908373ffffffffffffffffffffffffffffffffffffffff160217905550600860009054906101000a900473ffffffffffffffffffffffffffffffffffffffff1673ffffffffffffffffffffffffffffffffffffffff1663c45a01556040518163ffffffff1660e01b815260040160206040518083038186803b1580156200030157600080fd5b505afa15801562000316573d6000803e3d6000fd5b505050506040513d601f19601f820116820180604052508101906200033c9190620007bf565b73ffffffffffffffffffffffffffffffffffffffff1663c9c6539630600860009054906101000a900473ffffffffffffffffffffffffffffffffffffffff1673ffffffffffffffffffffffffffffffffffffffff1663ad5c46486040518163ffffffff1660e01b815260040160206040518083038186803b158015620003c157600080fd5b505afa158015620003d6573d6000803e3d6000fd5b505050506040513d601f19601f82011682018060405250810190620003fc9190620007bf565b6040518363ffffffff1660e01b81526004016200041b9291906200088a565b602060405180830381600087803b1580156200043657600080fd5b505af11580156200044b573d6000803e3d6000fd5b505050506040513d601f19601f82011682018060405250810190620004719190620007bf565b600960006101000a81548173ffffffffffffffffffffffffffffffffffffffff021916908373ffffffffffffffffffffffffffffffffffffffff16021790555060006216e360905060006216e360905060006216e360905060006216e3609050600083858385620004e39190620008b7565b620004ef9190620008b7565b620004fb9190620008b7565b6002546200050a919062000914565b905084600c6000600560009054906101000a900473ffffffffffffffffffffffffffffffffffffffff1673ffffffffffffffffffffffffffffffffffffffff1673ffffffffffffffffffffffffffffffffffffffff1681526020019081526020016000208190555083600c6000600660009054906101000a900473ffffffffffffffffffffffffffffffffffffffff1673ffffffffffffffffffffffffffffffffffffffff1673ffffffffffffffffffffffffffffffffffffffff1681526020019081526020016000208190555082600c6000600760009054906101000a900473ffffffffffffffffffffffffffffffffffffffff1673ffffffffffffffffffffffffffffffffffffffff1673ffffffffffffffffffffffffffffffffffffffff1681526020019081526020016000208190555081600c6000600460009054906101000a900473ffffffffffffffffffffffffffffffffffffffff1673ffffffffffffffffffffffffffffffffffffffff1673ffffffffffffffffffffffffffffffffffffffff1681526020019081526020016000208190555080600c60003073ffffffffffffffffffffffffffffffffffffffff1673ffffffffffffffffffffffffffffffffffffffff168152602001908152602001600020819055505050505050505050505062000a40565b82805462000706906200098d565b90600052602060002090601f0160209004810192826200072a576000855562000776565b82601f106200074557805160ff191683800117855562000776565b8280016001018555821562000776579182015b828111156200077557825182559160200191906001019062000758565b5b50905062000785919062000789565b5090565b5b80821115620007a45760008160009055506001016200078a565b5090565b600081519050620007b98162000a26565b92915050565b600060208284031215620007d857620007d762000a21565b5b6000620007e884828501620007a8565b91505092915050565b600080600080600060a0868803121562000810576200080f62000a21565b5b60006200082088828901620007a8565b95505060206200083388828901620007a8565b94505060406200084688828901620007a8565b93505060606200085988828901620007a8565b92505060806200086c88828901620007a8565b9150509295509295909350565b62000884816200094f565b82525050565b6000604082019050620008a1600083018562000879565b620008b0602083018462000879565b9392505050565b6000620008c48262000983565b9150620008d18362000983565b9250827fffffffffffffffffffffffffffffffffffffffffffffffffffffffffffffffff03821115620009095762000908620009c3565b5b828201905092915050565b6000620009218262000983565b91506200092e8362000983565b925082821015620009445762000943620009c3565b5b828203905092915050565b60006200095c8262000963565b9050919050565b600073ffffffffffffffffffffffffffffffffffffffff82169050919050565b6000819050919050565b60006002820490506001821680620009a657607f821691505b60208210811415620009bd57620009bc620009f2565b5b50919050565b7f4e487b7100000000000000000000000000000000000000000000000000000000600052601160045260246000fd5b7f4e487b7100000000000000000000000000000000000000000000000000000000600052602260045260246000fd5b600080fd5b62000a31816200094f565b811462000a3d57600080fd5b50565b611eca8062000a506000396000f3fe6080604052600436106101095760003560e01c8063599270441161009557806395d89b411161006457806395d89b4114610360578063a457c2d71461038b578063a9059cbb146103c8578063c7d9b8ef14610405578063dd62ed3e1461043057610109565b806359927044146102b657806367b9a286146102e157806370a08231146102f857806375f0a8741461033557610109565b8063313ce567116100dc578063313ce567146101de578063395093511461020957806342966c681461024657806348de0f401461026f57806351c6590a1461029a57610109565b806306fdde031461010e578063095ea7b31461013957806318160ddd1461017657806323b872dd146101a1575b600080fd5b34801561011a57600080fd5b5061012361046d565b604051610130919061197d565b60405180910390f35b34801561014557600080fd5b50610160600480360381019061015b91906115c7565b6104fb565b60405161016d9190611962565b60405180910390f35b34801561018257600080fd5b5061018b610512565b6040516101989190611a9f565b60405180910390f35b3480156101ad57600080fd5b506101c860048036038101906101c39190611574565b610518565b6040516101d59190611962565b60405180910390f35b3480156101ea57600080fd5b506101f361079e565b6040516102009190611aba565b60405180910390f35b34801561021557600080fd5b50610230600480360381019061022b91906115c7565b6107b1565b60405161023d9190611962565b60405180910390f35b34801561025257600080fd5b5061026d60048036038101906102689190611634565b61084f565b005b34801561027b57600080fd5b5061028461085c565b6040516102919190611a9f565b60405180910390f35b6102b460048036038101906102af9190611634565b610862565b005b3480156102c257600080fd5b506102cb610a40565b6040516102d891906118bd565b60405180910390f35b3480156102ed57600080fd5b506102f6610a66565b005b34801561030457600080fd5b5061031f600480360381019061031a9190611507565b610d7e565b60405161032c9190611a9f565b60405180910390f35b34801561034157600080fd5b5061034a610d96565b60405161035791906118bd565b60405180910390f35b34801561036c57600080fd5b50610375610dbc565b604051610382919061197d565b60405180910390f35b34801561039757600080fd5b506103b260048036038101906103ad91906115c7565b610e4a565b6040516103bf9190611962565b60405180910390f35b3480156103d457600080fd5b506103ef60048036038101906103ea91906115c7565b610f27565b6040516103fc9190611962565b60405180910390f35b34801561041157600080fd5b5061041a611090565b6040516104279190611a9f565b60405180910390f35b34801561043c57600080fd5b5061045760048036038101906104529190611534565b611096565b6040516104649190611a9f565b60405180910390f35b6000805461047a90611c15565b80601f01602080910402602001604051908101604052809291908181526020018280546104a690611c15565b80156104f35780601f106104c8576101008083540402835291602001916104f3565b820191906000526020600020905b8154815290600101906020018083116104d657829003601f168201915b505050505081565b600061050833848461111d565b6001905092915050565b60025481565b6000600c60008573ffffffffffffffffffffffffffffffffffffffff1673ffffffffffffffffffffffffffffffffffffffff1681526020019081526020016000205482111561056657600080fd5b600d60008573ffffffffffffffffffffffffffffffffffffffff1673ffffffffffffffffffffffffffffffffffffffff16815260200190815260200160002060003373ffffffffffffffffffffffffffffffffffffffff1673ffffffffffffffffffffffffffffffffffffffff168152602001908152602001600020548211156105ef57600080fd5b81600c60008673ffffffffffffffffffffffffffffffffffffffff1673ffffffffffffffffffffffffffffffffffffffff168152602001908152602001600020600082825461063e9190611b47565b9250508190555081600c60008573ffffffffffffffffffffffffffffffffffffffff1673ffffffffffffffffffffffffffffffffffffffff16815260200190815260200160002060008282546106949190611af1565b9250508190555081600d60008673ffffffffffffffffffffffffffffffffffffffff1673ffffffffffffffffffffffffffffffffffffffff16815260200190815260200160002060003373ffffffffffffffffffffffffffffffffffffffff1673ffffffffffffffffffffffffffffffffffffffff16815260200190815260200160002060008282546107279190611b47565b925050819055508273ffffffffffffffffffffffffffffffffffffffff168473ffffffffffffffffffffffffffffffffffffffff167fddf252ad1be2c89b69c2b068fc378daa952ba7f163c4a11628f55a4df523b3ef8460405161078b9190611a9f565b60405180910390a3600190509392505050565b600360009054906101000a900460ff1681565b6000610845338484600d60003373ffffffffffffffffffffffffffffffffffffffff1673ffffffffffffffffffffffffffffffffffffffff16815260200190815260200160002060008873ffffffffffffffffffffffffffffffffffffffff1673ffffffffffffffffffffffffffffffffffffffff168152602001908152602001600020546108409190611af1565b61111d565b6001905092915050565b61085933826112e8565b50565b600a5481565b600360019054906101000a900473ffffffffffffffffffffffffffffffffffffffff1673ffffffffffffffffffffffffffffffffffffffff163373ffffffffffffffffffffffffffffffffffffffff16146108f2576040517f08c379a00000000000000000000000000000000000000000000000000000000081526004016108e9906119df565b60405180910390fd5b60008111806109015750600034115b610940576040517f08c379a000000000000000000000000000000000000000000000000000000000815260040161093790611a1f565b60405180910390fd5b61096d30600860009054906101000a900473ffffffffffffffffffffffffffffffffffffffff168361111d565b600a544261097b9190611af1565b600b81905550600860009054906101000a900473ffffffffffffffffffffffffffffffffffffffff1673ffffffffffffffffffffffffffffffffffffffff1663f305d71934308460008030426040518863ffffffff1660e01b81526004016109e896959493929190611901565b6060604051808303818588803b158015610a0157600080fd5b505af1158015610a15573d6000803e3d6000fd5b50505050506040513d601f19601f82011682018060405250810190610a3a91906116ce565b50505050565b600360019054906101000a900473ffffffffffffffffffffffffffffffffffffffff1681565b600360019054906101000a900473ffffffffffffffffffffffffffffffffffffffff1673ffffffffffffffffffffffffffffffffffffffff163373ffffffffffffffffffffffffffffffffffffffff1614610af6576040517f08c379a0000000000000000000000000000000000000000000000000000000008152600401610aed906119df565b60405180910390fd5b600b54421015610b3b576040517f08c379a0000000000000000000000000000000000000000000000000000000008152600401610b329061199f565b60405180910390fd5b6000600960009054906101000a900473ffffffffffffffffffffffffffffffffffffffff16905060008173ffffffffffffffffffffffffffffffffffffffff166370a08231306040518263ffffffff1660e01b8152600401610b9d91906118bd565b60206040518083038186803b158015610bb557600080fd5b505afa158015610bc9573d6000803e3d6000fd5b505050506040513d601f19601f82011682018060405250810190610bed9190611661565b90508173ffffffffffffffffffffffffffffffffffffffff1663095ea7b3600860009054906101000a900473ffffffffffffffffffffffffffffffffffffffff16836040518363ffffffff1660e01b8152600401610c4c9291906118d8565b602060405180830381600087803b158015610c6657600080fd5b505af1158015610c7a573d6000803e3d6000fd5b505050506040513d601f19601f82011682018060405250810190610c9e9190611607565b50600860009054906101000a900473ffffffffffffffffffffffffffffffffffffffff1673ffffffffffffffffffffffffffffffffffffffff166302751cec3083600080600360019054906101000a900473ffffffffffffffffffffffffffffffffffffffff16426040518763ffffffff1660e01b8152600401610d2796959493929190611901565b6040805180830381600087803b158015610d4057600080fd5b505af1158015610d54573d6000803e3d6000fd5b505050506040513d601f19601f82011682018060405250810190610d78919061168e565b50505050565b600c6020528060005260406000206000915090505481565b600460009054906101000a900473ffffffffffffffffffffffffffffffffffffffff1681565b60018054610dc990611c15565b80601f0160208091040260200160405190810160405280929190818152602001828054610df590611c15565b8015610e425780601f10610e1757610100808354040283529160200191610e42565b820191906000526020600020905b815481529060010190602001808311610e2557829003601f168201915b505050505081565b600080600d60003373ffffffffffffffffffffffffffffffffffffffff1673ffffffffffffffffffffffffffffffffffffffff16815260200190815260200160002060008573ffffffffffffffffffffffffffffffffffffffff1673ffffffffffffffffffffffffffffffffffffffff16815260200190815260200160002054905082811015610f0f576040517f08c379a0000000000000000000000000000000000000000000000000000000008152600401610f0690611a7f565b60405180910390fd5b610f1c338585840361111d565b600191505092915050565b600081600c60003373ffffffffffffffffffffffffffffffffffffffff1673ffffffffffffffffffffffffffffffffffffffff168152602001908152602001600020541015610f7557600080fd5b81600c60003373ffffffffffffffffffffffffffffffffffffffff1673ffffffffffffffffffffffffffffffffffffffff1681526020019081526020016000206000828254610fc49190611b47565b9250508190555081600c60008573ffffffffffffffffffffffffffffffffffffffff1673ffffffffffffffffffffffffffffffffffffffff168152602001908152602001600020600082825461101a9190611af1565b925050819055508273ffffffffffffffffffffffffffffffffffffffff163373ffffffffffffffffffffffffffffffffffffffff167fddf252ad1be2c89b69c2b068fc378daa952ba7f163c4a11628f55a4df523b3ef8460405161107e9190611a9f565b60405180910390a36001905092915050565b600b5481565b6000600d60008473ffffffffffffffffffffffffffffffffffffffff1673ffffffffffffffffffffffffffffffffffffffff16815260200190815260200160002060008373ffffffffffffffffffffffffffffffffffffffff1673ffffffffffffffffffffffffffffffffffffffff16815260200190815260200160002054905092915050565b600073ffffffffffffffffffffffffffffffffffffffff168373ffffffffffffffffffffffffffffffffffffffff16141561118d576040517f08c379a000000000000000000000000000000000000000000000000000000000815260040161118490611a5f565b60405180910390fd5b600073ffffffffffffffffffffffffffffffffffffffff168273ffffffffffffffffffffffffffffffffffffffff1614156111fd576040517f08c379a00000000000000000000000000000000000000000000000000000000081526004016111f4906119bf565b60405180910390fd5b80600d60008573ffffffffffffffffffffffffffffffffffffffff1673ffffffffffffffffffffffffffffffffffffffff16815260200190815260200160002060008473ffffffffffffffffffffffffffffffffffffffff1673ffffffffffffffffffffffffffffffffffffffff168152602001908152602001600020819055508173ffffffffffffffffffffffffffffffffffffffff168373ffffffffffffffffffffffffffffffffffffffff167f8c5be1e5ebec7d5bd14f71427d1e84f3dd0314c0f7b2291e5b200ac8c7c3b925836040516112db9190611a9f565b60405180910390a3505050565b600073ffffffffffffffffffffffffffffffffffffffff168273ffffffffffffffffffffffffffffffffffffffff161415611358576040517f08c379a000000000000000000000000000000000000000000000000000000000815260040161134f90611a3f565b60405180910390fd5b80600c60008473ffffffffffffffffffffffffffffffffffffffff1673ffffffffffffffffffffffffffffffffffffffff1681526020019081526020016000205410156113da576040517f08c379a00000000000000000000000000000000000000000000000000000000081526004016113d1906119ff565b60405180910390fd5b80600c60008473ffffffffffffffffffffffffffffffffffffffff1673ffffffffffffffffffffffffffffffffffffffff16815260200190815260200160002060008282546114299190611b47565b9250508190555080600260008282546114429190611b47565b92505081905550600073ffffffffffffffffffffffffffffffffffffffff168273ffffffffffffffffffffffffffffffffffffffff167fddf252ad1be2c89b69c2b068fc378daa952ba7f163c4a11628f55a4df523b3ef836040516114a79190611a9f565b60405180910390a35050565b6000813590506114c281611e4f565b92915050565b6000815190506114d781611e66565b92915050565b6000813590506114ec81611e7d565b92915050565b60008151905061150181611e7d565b92915050565b60006020828403121561151d5761151c611ca5565b5b600061152b848285016114b3565b91505092915050565b6000806040838503121561154b5761154a611ca5565b5b6000611559858286016114b3565b925050602061156a858286016114b3565b9150509250929050565b60008060006060848603121561158d5761158c611ca5565b5b600061159b868287016114b3565b93505060206115ac868287016114b3565b92505060406115bd868287016114dd565b9150509250925092565b600080604083850312156115de576115dd611ca5565b5b60006115ec858286016114b3565b92505060206115fd858286016114dd565b9150509250929050565b60006020828403121561161d5761161c611ca5565b5b600061162b848285016114c8565b91505092915050565b60006020828403121561164a57611649611ca5565b5b6000611658848285016114dd565b91505092915050565b60006020828403121561167757611676611ca5565b5b6000611685848285016114f2565b91505092915050565b600080604083850312156116a5576116a4611ca5565b5b60006116b3858286016114f2565b92505060206116c4858286016114f2565b9150509250929050565b6000806000606084860312156116e7576116e6611ca5565b5b60006116f5868287016114f2565b9350506020611706868287016114f2565b9250506040611717868287016114f2565b9150509250925092565b61172a81611b7b565b82525050565b61173981611b8d565b82525050565b61174881611bd0565b82525050565b600061175982611ad5565b6117638185611ae0565b9350611773818560208601611be2565b61177c81611caa565b840191505092915050565b6000611794600683611ae0565b915061179f82611cbb565b602082019050919050565b60006117b7602283611ae0565b91506117c282611ce4565b604082019050919050565b60006117da601683611ae0565b91506117e582611d33565b602082019050919050565b60006117fd601383611ae0565b915061180882611d5c565b602082019050919050565b6000611820601c83611ae0565b915061182b82611d85565b602082019050919050565b6000611843600083611ae0565b915061184e82611dae565b600082019050919050565b6000611866602483611ae0565b915061187182611db1565b604082019050919050565b6000611889602583611ae0565b915061189482611e00565b604082019050919050565b6118a881611bb9565b82525050565b6118b781611bc3565b82525050565b60006020820190506118d26000830184611721565b92915050565b60006040820190506118ed6000830185611721565b6118fa602083018461189f565b9392505050565b600060c0820190506119166000830189611721565b611923602083018861189f565b611930604083018761173f565b61193d606083018661173f565b61194a6080830185611721565b61195760a083018461189f565b979650505050505050565b60006020820190506119776000830184611730565b92915050565b60006020820190508181036000830152611997818461174e565b905092915050565b600060208201905081810360008301526119b881611787565b9050919050565b600060208201905081810360008301526119d8816117aa565b9050919050565b600060208201905081810360008301526119f8816117cd565b9050919050565b60006020820190508181036000830152611a18816117f0565b9050919050565b60006020820190508181036000830152611a3881611813565b9050919050565b60006020820190508181036000830152611a5881611836565b9050919050565b60006020820190508181036000830152611a7881611859565b9050919050565b60006020820190508181036000830152611a988161187c565b9050919050565b6000602082019050611ab4600083018461189f565b92915050565b6000602082019050611acf60008301846118ae565b92915050565b600081519050919050565b600082825260208201905092915050565b6000611afc82611bb9565b9150611b0783611bb9565b9250827fffffffffffffffffffffffffffffffffffffffffffffffffffffffffffffffff03821115611b3c57611b3b611c47565b5b828201905092915050565b6000611b5282611bb9565b9150611b5d83611bb9565b925082821015611b7057611b6f611c47565b5b828203905092915050565b6000611b8682611b99565b9050919050565b60008115159050919050565b600073ffffffffffffffffffffffffffffffffffffffff82169050919050565b6000819050919050565b600060ff82169050919050565b6000611bdb82611bb9565b9050919050565b60005b83811015611c00578082015181840152602081019050611be5565b83811115611c0f576000848401525b50505050565b60006002820490506001821680611c2d57607f821691505b60208210811415611c4157611c40611c76565b5b50919050565b7f4e487b7100000000000000000000000000000000000000000000000000000000600052601160045260246000fd5b7f4e487b7100000000000000000000000000000000000000000000000000000000600052602260045260246000fd5b600080fd5b6000601f19601f8301169050919050565b7f4c6f636b65640000000000000000000000000000000000000000000000000000600082015250565b7f45524332303a20617070726f766520746f20746865207a65726f20616464726560008201527f7373000000000000000000000000000000000000000000000000000000000000602082015250565b7f596f75206d75737420626520746865206f776e65722e00000000000000000000600082015250565b7f746f6b656e7320696e737566696369656e742e00000000000000000000000000600082015250565b7f496e73756666696369656e7420746f6b656e73206f7220424e42732e00000000600082015250565b50565b7f45524332303a20617070726f76652066726f6d20746865207a65726f2061646460008201527f7265737300000000000000000000000000000000000000000000000000000000602082015250565b7f45524332303a2064656372656173656420616c6c6f77616e63652062656c6f7760008201527f207a65726f000000000000000000000000000000000000000000000000000000602082015250565b611e5881611b7b565b8114611e6357600080fd5b50565b611e6f81611b8d565b8114611e7a57600080fd5b50565b611e8681611bb9565b8114611e9157600080fd5b5056fea26469706673582212209f0d018600bbe50027c0763846c89a53d4344bf65713cb01a5f26b5d35da63cb64736f6c63430008060033",
  "immutableReferences": {},
  "source": "// SPDX-License-Identifier: MIT\npragma solidity ^0.8.6;\n//pancake swap clone on bsc works good - launch net TBA\n//testnet router: https://pancake.kiemtienonline360.com/- 0x9Ac64Cc6e4415144C455BD8E4837Fea55603e5c3 \n//shit wallet-3 -0x22204A6bd11965F19F3ccf64541f34EcdF560d45\nimport \"./Libraries.sol\";\n\ncontract SetasToken {\n    string public name = \"Seta Token\";\n    string public symbol = \"Seta\";\n    uint256 public totalSupply = 10000000; // 10 millon\n    uint8 public decimals = 0;\n    address public teamWallet; // owner wallet address\n    address public marketingWallet; // marketing wallet address\n    address private firstPresaleContract; // first presale address\n    address private secondPresaleContract; // second presale address\n    address private teamVestingContract; // team vesting contract\n    IUniswapV2Router02 router; // Router.\n    address private pancakePairAddress; // the pancakeswap pair address.\n    uint public liquidityLockTime = 900 days; // how long do we lock up liquidity\n    uint public liquidityLockCooldown;// cooldown period for changes to liquidity settings and removal\n\n    mapping(address => uint256) public balanceOf;\n    mapping(address => mapping(address => uint256)) private _allowances;\n\n    event Transfer(address indexed _from, address indexed _to, uint256 _value);\n    event Approval(address indexed _owner, address indexed _spender, uint256 _value);\n\n    constructor(\n        address _teamWallet, \n        address _marketingWallet, \n        address _firstPresaleContract, \n        address _secondPresaleContract, \n        address _teamVestingContract) {\n        teamWallet = _teamWallet;\n        marketingWallet = _marketingWallet;\n        firstPresaleContract = _firstPresaleContract;\n        secondPresaleContract = _secondPresaleContract;\n        teamVestingContract = _teamVestingContract;\n        router = IUniswapV2Router02(0x9Ac64Cc6e4415144C455BD8E4837Fea55603e5c3);//router address for pair creation\n        pancakePairAddress = IPancakeFactory(router.factory()).createPair(address(this), router.WETH());\n\n        uint _firstPresaleTokens =  1500000;//15%\n        uint _secondPresaleTokens = 1500000;//15%\n        uint _teamVestingTokens =   1500000;//15%\n        uint _marketingTokens =     1500000;//15%\n        uint _contractTokens = totalSupply - (_teamVestingTokens + _marketingTokens + _firstPresaleTokens + _secondPresaleTokens);\n        //40% left to contract\n        balanceOf[firstPresaleContract] = _firstPresaleTokens;\n        balanceOf[secondPresaleContract] = _secondPresaleTokens;\n        balanceOf[teamVestingContract] = _teamVestingTokens;\n        balanceOf[marketingWallet] = _marketingTokens;\n        balanceOf[address(this)] = _contractTokens;\n    }\n\n    modifier onlyOwner() {\n        require(msg.sender == teamWallet, 'You must be the owner.');\n        _;\n    }\n\n    function transfer(address _to, uint256 _value) public returns (bool success) {\n        require(balanceOf[msg.sender] >= _value);\n\n        balanceOf[msg.sender] -= _value;\n        balanceOf[_to] += _value;\n\n        emit Transfer(msg.sender, _to, _value);\n\n        return true;\n    }\n\n    function allowance(address _owner, address _spender) public view virtual returns (uint256) {\n        return _allowances[_owner][_spender];\n    }\n\n    function increaseAllowance(address _spender, uint256 _addedValue) public virtual returns (bool) {\n        _approve(msg.sender, _spender, _allowances[msg.sender][_spender] + _addedValue);\n\n        return true;\n    }\n\n    function decreaseAllowance(address _spender, uint256 _subtractedValue) public virtual returns (bool) {\n        uint256 currentAllowance = _allowances[msg.sender][_spender];\n        require(currentAllowance >= _subtractedValue, \"ERC20: decreased allowance below zero\");\n\n        unchecked {\n            _approve(msg.sender, _spender, currentAllowance - _subtractedValue);\n        }\n        return true;\n    }\n\n    function approve(address _spender, uint256 _value) public returns (bool success) {\n        _approve(msg.sender, _spender, _value);\n\n        return true;\n    }\n\n    function _approve(address _owner, address _spender, uint256 _amount) internal virtual {\n        require(_owner != address(0), \"ERC20: approve from the zero address\");\n        require(_spender != address(0), \"ERC20: approve to the zero address\");\n\n        _allowances[_owner][_spender] = _amount;\n\n        emit Approval(_owner, _spender, _amount);\n    }\n\n    function transferFrom(address _from, address _to, uint256 _value) public returns (bool success) {\n        require(_value <= balanceOf[_from]);\n        require(_value <= _allowances[_from][msg.sender]);\n\n        balanceOf[_from] -= _value;\n        balanceOf[_to] += _value;\n        _allowances[_from][msg.sender] -= _value;\n\n        emit Transfer(_from, _to, _value);\n\n        return true;\n    }\n\n    function burn(uint256 _amount) public virtual {\n        _burn(msg.sender, _amount);\n    }\n\n    function _burn(address _account, uint256 _amount) internal virtual {\n        require(_account != address(0), '');\n        require(balanceOf[_account] >= _amount, 'tokens insuficient.');\n\n        balanceOf[_account] -= _amount;\n        totalSupply -= _amount;\n\n        emit Transfer(_account, address(0), _amount);\n    }\n    \n    function addLiquidity(uint _tokenAmount) public payable onlyOwner {\n        require(_tokenAmount > 0 || msg.value > 0, \"Insufficient tokens or BNBs.\");\n        \n        _approve(address(this), address(router), _tokenAmount);\n\n        liquidityLockCooldown = block.timestamp + liquidityLockTime;\n\n        router.addLiquidityETH{value: msg.value}(\n            address(this),\n            _tokenAmount,\n            0,\n            0,\n            address(this),\n            block.timestamp\n        );\n    }\n\n    function removeLiquidity() public onlyOwner {\n        require(block.timestamp >= liquidityLockCooldown, \"Locked\");\n\n        IERC20 liquidityTokens = IERC20(pancakePairAddress);\n        uint _amount = liquidityTokens.balanceOf(address(this));\n        liquidityTokens.approve(address(router), _amount);\n\n        router.removeLiquidityETH(\n            address(this),\n            _amount,\n            0,\n            0,\n            teamWallet,\n            block.timestamp\n        );\n    }\n}\n",
  "sourcePath": "/home/r00t/Documents/CURRENT_WORK/Paralell_Shift/_good_medicine/clean_Token-contracts/contracts/SetaToken.sol",
  "compiler": {
    "name": "solc",
    "version": "0.8.6+commit.11564f7e.Emscripten.clang"
  },
  "schemaVersion": "3.4.6",
  "updatedAt": "2022-03-26T15:38:54.779Z",
  "devdoc": {
    "kind": "dev",
    "methods": {},
    "version": 1
  },
  "userdoc": {
    "kind": "user",
    "methods": {},
    "version": 1
  }
}