{
  "contractName": "TeamVesting",
  "abi": [
    {
      "inputs": [
        {
          "internalType": "address",
          "name": "_teamWallet",
          "type": "address"
        }
      ],
      "stateMutability": "nonpayable",
      "type": "constructor"
    },
    {
      "inputs": [],
      "name": "claimReady",
      "outputs": [
        {
          "internalType": "uint256",
          "name": "",
          "type": "uint256"
        }
      ],
      "stateMutability": "view",
      "type": "function"
    },
    {
      "inputs": [],
      "name": "cooldownTime",
      "outputs": [
        {
          "internalType": "uint256",
          "name": "",
          "type": "uint256"
        }
      ],
      "stateMutability": "view",
      "type": "function"
    },
    {
      "inputs": [],
      "name": "initialContractBalance",
      "outputs": [
        {
          "internalType": "uint256",
          "name": "",
          "type": "uint256"
        }
      ],
      "stateMutability": "view",
      "type": "function"
    },
    {
      "inputs": [],
      "name": "teamWallet",
      "outputs": [
        {
          "internalType": "address",
          "name": "",
          "type": "address"
        }
      ],
      "stateMutability": "view",
      "type": "function"
    },
    {
      "inputs": [],
      "name": "token",
      "outputs": [
        {
          "internalType": "contract IERC20",
          "name": "",
          "type": "address"
        }
      ],
      "stateMutability": "view",
      "type": "function"
    },
    {
      "inputs": [
        {
          "internalType": "contract IERC20",
          "name": "_token",
          "type": "address"
        }
      ],
      "name": "setToken",
      "outputs": [],
      "stateMutability": "nonpayable",
      "type": "function"
    },
    {
      "inputs": [],
      "name": "claimTokens",
      "outputs": [],
      "stateMutability": "nonpayable",
      "type": "function"
    }
  ],
  "bytecode": "0x608060405262278d006003556000600560006101000a81548160ff0219169083151502179055503480156200003357600080fd5b5060405162001180380380620011808339818101604052810190620000599190620000c0565b600160008190555080600260006101000a81548173ffffffffffffffffffffffffffffffffffffffff021916908373ffffffffffffffffffffffffffffffffffffffff1602179055505062000145565b600081519050620000ba816200012b565b92915050565b600060208284031215620000d957620000d862000126565b5b6000620000e984828501620000a9565b91505092915050565b6000620000ff8262000106565b9050919050565b600073ffffffffffffffffffffffffffffffffffffffff82169050919050565b600080fd5b6200013681620000f2565b81146200014257600080fd5b50565b61102b80620001556000396000f3fe608060405234801561001057600080fd5b506004361061007d5760003560e01c8063599270441161005b57806359927044146100c6578063b319c6b7146100e4578063e83b416d14610102578063fc0c546a146101205761007d565b806312b07c5514610082578063144fa6d7146100a057806348c54b9d146100bc575b600080fd5b61008a61013e565b6040516100979190610cc4565b60405180910390f35b6100ba60048036038101906100b59190610a8f565b610144565b005b6100c4610283565b005b6100ce6108ad565b6040516100db9190610bc5565b60405180910390f35b6100ec6108d3565b6040516100f99190610cc4565b60405180910390f35b61010a6108d9565b6040516101179190610cc4565b60405180910390f35b6101286108df565b6040516101359190610c09565b60405180910390f35b60065481565b600260009054906101000a900473ffffffffffffffffffffffffffffffffffffffff1673ffffffffffffffffffffffffffffffffffffffff163373ffffffffffffffffffffffffffffffffffffffff16146101d4576040517f08c379a00000000000000000000000000000000000000000000000000000000081526004016101cb90610c24565b60405180910390fd5b600560009054906101000a900460ff1615610224576040517f08c379a000000000000000000000000000000000000000000000000000000000815260040161021b90610c84565b60405180910390fd5b80600160006101000a81548173ffffffffffffffffffffffffffffffffffffffff021916908373ffffffffffffffffffffffffffffffffffffffff1602179055506001600560006101000a81548160ff02191690831515021790555050565b600260009054906101000a900473ffffffffffffffffffffffffffffffffffffffff1673ffffffffffffffffffffffffffffffffffffffff163373ffffffffffffffffffffffffffffffffffffffff1614610313576040517f08c379a000000000000000000000000000000000000000000000000000000000815260040161030a90610c24565b60405180910390fd5b60026000541415610359576040517f08c379a000000000000000000000000000000000000000000000000000000000815260040161035090610ca4565b60405180910390fd5b60026000819055504260045411156103a6576040517f08c379a000000000000000000000000000000000000000000000000000000000815260040161039d90610c64565b60405180910390fd5b6000600160009054906101000a900473ffffffffffffffffffffffffffffffffffffffff1673ffffffffffffffffffffffffffffffffffffffff166370a08231306040518263ffffffff1660e01b81526004016104039190610bc5565b60206040518083038186803b15801561041b57600080fd5b505afa15801561042f573d6000803e3d6000fd5b505050506040513d601f19601f820116820180604052508101906104539190610abc565b11610493576040517f08c379a000000000000000000000000000000000000000000000000000000000815260040161048a90610c44565b60405180910390fd5b600760009054906101000a900460ff1661057457600160009054906101000a900473ffffffffffffffffffffffffffffffffffffffff1673ffffffffffffffffffffffffffffffffffffffff166370a08231306040518263ffffffff1660e01b81526004016105029190610bc5565b60206040518083038186803b15801561051a57600080fd5b505afa15801561052e573d6000803e3d6000fd5b505050506040513d601f19601f820116820180604052508101906105529190610abc565b6006819055506001600760006101000a81548160ff0219169083151502179055505b60006105876006546103e8612710610905565b905080600160009054906101000a900473ffffffffffffffffffffffffffffffffffffffff1673ffffffffffffffffffffffffffffffffffffffff166370a08231306040518263ffffffff1660e01b81526004016105e59190610bc5565b60206040518083038186803b1580156105fd57600080fd5b505afa158015610611573d6000803e3d6000fd5b505050506040513d601f19601f820116820180604052508101906106359190610abc565b116107bb57600160009054906101000a900473ffffffffffffffffffffffffffffffffffffffff1673ffffffffffffffffffffffffffffffffffffffff1663a9059cbb600260009054906101000a900473ffffffffffffffffffffffffffffffffffffffff16600160009054906101000a900473ffffffffffffffffffffffffffffffffffffffff1673ffffffffffffffffffffffffffffffffffffffff166370a08231306040518263ffffffff1660e01b81526004016106f69190610bc5565b60206040518083038186803b15801561070e57600080fd5b505afa158015610722573d6000803e3d6000fd5b505050506040513d601f19601f820116820180604052508101906107469190610abc565b6040518363ffffffff1660e01b8152600401610763929190610be0565b602060405180830381600087803b15801561077d57600080fd5b505af1158015610791573d6000803e3d6000fd5b505050506040513d601f19601f820116820180604052508101906107b59190610a62565b506108a2565b600354426107c99190610cf0565b600481905550600160009054906101000a900473ffffffffffffffffffffffffffffffffffffffff1673ffffffffffffffffffffffffffffffffffffffff1663a9059cbb600260009054906101000a900473ffffffffffffffffffffffffffffffffffffffff16836040518363ffffffff1660e01b815260040161084e929190610be0565b602060405180830381600087803b15801561086857600080fd5b505af115801561087c573d6000803e3d6000fd5b505050506040513d601f19601f820116820180604052508101906108a09190610a62565b505b506001600081905550565b600260009054906101000a900473ffffffffffffffffffffffffffffffffffffffff1681565b60035481565b60045481565b600160009054906101000a900473ffffffffffffffffffffffffffffffffffffffff1681565b600080826fffffffffffffffffffffffffffffffff16856109269190610d46565b90506000836fffffffffffffffffffffffffffffffff16866109489190610e4f565b90506000846fffffffffffffffffffffffffffffffff168661096a9190610d46565b90506000856fffffffffffffffffffffffffffffffff168761098c9190610e4f565b9050856fffffffffffffffffffffffffffffffff1681846109ad9190610d77565b6109b79190610d46565b82846109c39190610d77565b82866109cf9190610d77565b886fffffffffffffffffffffffffffffffff1685886109ee9190610d77565b6109f89190610d77565b610a029190610cf0565b610a0c9190610cf0565b610a169190610cf0565b9450505050509392505050565b600081519050610a3281610fb0565b92915050565b600081359050610a4781610fc7565b92915050565b600081519050610a5c81610fde565b92915050565b600060208284031215610a7857610a77610ede565b5b6000610a8684828501610a23565b91505092915050565b600060208284031215610aa557610aa4610ede565b5b6000610ab384828501610a38565b91505092915050565b600060208284031215610ad257610ad1610ede565b5b6000610ae084828501610a4d565b91505092915050565b610af281610dd1565b82525050565b610b0181610e2b565b82525050565b6000610b14601683610cdf565b9150610b1f82610ee3565b602082019050919050565b6000610b37601583610cdf565b9150610b4282610f0c565b602082019050919050565b6000610b5a601483610cdf565b9150610b6582610f35565b602082019050919050565b6000610b7d601a83610cdf565b9150610b8882610f5e565b602082019050919050565b6000610ba0601f83610cdf565b9150610bab82610f87565b602082019050919050565b610bbf81610e21565b82525050565b6000602082019050610bda6000830184610ae9565b92915050565b6000604082019050610bf56000830185610ae9565b610c026020830184610bb6565b9392505050565b6000602082019050610c1e6000830184610af8565b92915050565b60006020820190508181036000830152610c3d81610b07565b9050919050565b60006020820190508181036000830152610c5d81610b2a565b9050919050565b60006020820190508181036000830152610c7d81610b4d565b9050919050565b60006020820190508181036000830152610c9d81610b70565b9050919050565b60006020820190508181036000830152610cbd81610b93565b9050919050565b6000602082019050610cd96000830184610bb6565b92915050565b600082825260208201905092915050565b6000610cfb82610e21565b9150610d0683610e21565b9250827fffffffffffffffffffffffffffffffffffffffffffffffffffffffffffffffff03821115610d3b57610d3a610e80565b5b828201905092915050565b6000610d5182610e21565b9150610d5c83610e21565b925082610d6c57610d6b610eaf565b5b828204905092915050565b6000610d8282610e21565b9150610d8d83610e21565b9250817fffffffffffffffffffffffffffffffffffffffffffffffffffffffffffffffff0483118215151615610dc657610dc5610e80565b5b828202905092915050565b6000610ddc82610e01565b9050919050565b60008115159050919050565b6000610dfa82610dd1565b9050919050565b600073ffffffffffffffffffffffffffffffffffffffff82169050919050565b6000819050919050565b6000610e3682610e3d565b9050919050565b6000610e4882610e01565b9050919050565b6000610e5a82610e21565b9150610e6583610e21565b925082610e7557610e74610eaf565b5b828206905092915050565b7f4e487b7100000000000000000000000000000000000000000000000000000000600052601160045260246000fd5b7f4e487b7100000000000000000000000000000000000000000000000000000000600052601260045260246000fd5b600080fd5b7f596f75206d75737420626520746865206f776e65722e00000000000000000000600082015250565b7f496e73756666696369656e742042616c616e63652e0000000000000000000000600082015250565b7f596f752063616e277420636c61696d206e6f772e000000000000000000000000600082015250565b7f546f6b656e20697320616c726561647920696e7365727465642e000000000000600082015250565b7f5265656e7472616e637947756172643a207265656e7472616e742063616c6c00600082015250565b610fb981610de3565b8114610fc457600080fd5b50565b610fd081610def565b8114610fdb57600080fd5b50565b610fe781610e21565b8114610ff257600080fd5b5056fea26469706673582212205d40b854bb301757a7eff23f5a37ae482be7b7f9c209d789640aa7729da75c9e64736f6c63430008060033",
  "immutableReferences": {},
  "source": "// SPDX-License-Identifier: MIT\npragma solidity ^0.8.6;\n\n// Imports\nimport \"./Libraries.sol\";\n//we put the team funds in here so the people see we cant take and trade or\n//sell all at once just like them we cant act as a whale\ncontract TeamVesting is ReentrancyGuard {\n    IERC20 public token;\n    address public teamWallet; // team wallet\n    uint public cooldownTime = 30 days; // cooldown time\n    uint public claimReady; //save claim  time\n    bool private tokenAvailable = false;\n    uint public initialContractBalance; // Initial contract balance.\n    bool private initialized; // Checks if the variable initializedContractBalance has been defined.\n\n    constructor(address _teamWallet) {\n        teamWallet = _teamWallet;\n    }\n\n    modifier onlyOwner() {\n        require(msg.sender == teamWallet, 'You must be the owner.');\n        _;\n    }\n\n    //add the token can only happen once\n    function setToken(IERC20 _token) public onlyOwner {\n        require(!tokenAvailable, \"Token is already inserted.\");\n        token = _token;\n        tokenAvailable = true;\n    }\n\n    //% calculator\n    function mulScale (uint x, uint y, uint128 scale) internal pure returns (uint) {\n        uint a = x / scale;\n        uint b = x % scale;\n        uint c = y / scale;\n        uint d = y % scale;\n\n        return a * c * scale + a * d + b * c + b * d / scale;\n    }\n\n    //team claim\n    function claimTokens() public onlyOwner nonReentrant {\n        require(claimReady <= block.timestamp, \"You can't claim now.\");\n        require(token.balanceOf(address(this)) > 0, \"Insufficient Balance.\");\n\n        if(!initialized) {\n            initialContractBalance = token.balanceOf(address(this));\n            initialized = true;\n        }\n\n        uint _withdrawableBalance = mulScale(initialContractBalance, 1000, 10000); // 1000 basis points = 10%.\n\n        if(token.balanceOf(address(this)) <= _withdrawableBalance) {\n            token.transfer(teamWallet, token.balanceOf(address(this)));\n        } else {\n            claimReady = block.timestamp + cooldownTime;\n\n            token.transfer(teamWallet, _withdrawableBalance); \n        }\n    }\n}",
  "sourcePath": "/home/r00t/Documents/CURRENT_WORK/Paralell_Shift/_good_medicine/clean_Token-contracts/contracts/TeamVesting.sol",
  "compiler": {
    "name": "solc",
    "version": "0.8.6+commit.11564f7e.Emscripten.clang"
  },
  "schemaVersion": "3.4.6",
  "updatedAt": "2022-03-26T15:38:54.847Z",
  "devdoc": {
    "kind": "dev",
    "methods": {},
    "version": 1
  },
  "userdoc": {
    "kind": "user",
    "methods": {},
    "version": 1
  }
}